:1001F1000C0830187A10385A424A5200FFA60C14E3
:0C020100CFE785EFC7A5BDB5ADFF0059E4
:0401CF007F057E002A
:1001D300D3EF9400EE940040147D707C00ED1D700D
:0D01E300011CED4C70F7EF1F70E61E80E36D
:0101F00022EC
:0D02A3007F3F7E00EF1F70011EEF4E70F7D1
:0102B000222B
:0D02B1007F047E02EF1F70011EEF4E70F7FC
:0102BE00221D
:10020E00D3EF9400EE94004009B295EF1F70F11EEB
:03021E0080EE224D
:0C02E6007F2A7E0012020ED2950202A3B5
:100221007F2A7E0012020ED2951202A31202A302AD
:0202310002A326
:0C02F2007FB27E0212020ED2950202B111
:10016E00AD07ED30E70512022180031202E6ED30F5
:10017E00E60512022180031202E6ED30E5051202B9
:10018E002180031202E6ED30E405120221800312F3
:10019E0002E6ED30E30512022180031202E6ED3095
:1001AE00E20512022180031202E6ED30E105120291
:1001BE002180031202E6ED30E0030202211202E674
:0101CE00220E
:0302BF001202F236
:0A02C200AF1112016EAF1D02016EB4
:0D02CC001202BFAF0812016EAF1402016EE6
:0D02D9001202BFAF0912016EAF1502016ED7
:100233001202F21202C2AF0A12016EAF1602016E6F
:100243001202F21202C2AF0B12016EAF1702016E5D
:100253001202F21202C2AF0C12016EAF1802016E4B
:100263001202F21202C2AF0D12016EAF1902016E39
:100273001202F21202C2AF0E12016EAF1A02016E27
:100283001202F21202C2AF0F12016EAF1B02016E15
:100293001202F21202C2AF1012016EAF1C02016E03
:1000030075B0FE85B0205320F0E52064F060441203
:1000130001CF85B0205320F0E52064F0603585B032
:1000230020E5202482601B24C0601224E0600924A0
:10003300F070121202CC800D1202D9800812023322
:100043008003120243E52064F060CD85B020532085
:10005300F080F275B0FD85B0205320F0E52064F008
:1000630060441201CF85B0205320F0E52064F06096
:100073003585B020E5202483601B24C0601224E072
:10008300600924F07012120253800D12026380087B
:100093001202738003120283E52064F060CD85B001
:1000A300205320F080F275B0FB85B0205320F0E59B
:1000B3002064F060291201CF85B0205320F0E520A1
:1000C30064F0601A85B020E52024157003120293B2
:0E00D300E52064F060E885B0205320F080F254
:0100E10022FC
:0502FE0012000380FB6B
:030000000200E219
:0C00E200787FE4F6D8FD7581200201292A
:1000EE000202FEE493A3F8E493A34003F68001F228
:1000FE0008DFF48029E493A3F85407240CC8C33313
:10010E00C4540F4420C8834004F456800146F6DFE1
:10011E00E4800B01020408102040809001F1E47E7F
:10012E00019360BCA3FF543F30E509541FFEE493D6
:10013E00A360010ECF54C025E060A840B8E493A39D
:10014E00FAE493A3F8E493A3C8C582C8CAC583CAC8
:10015E00F0A3C8C582C8CAC583CADFE9DEE780BE80
:01020D0000F0
:00000001FF
